:030000000201AB4F
:0C01AB00787FE4F6D8FD75815C0201F25B
:10071D000A47C0F9A4B0999282F880900237000080
:0C072D00025B000002290000022700010E
:08073A00F8E6F5807F0A7E005D
:100742007C007D0A120237EF1FAC0670011E4C704E
:02075200F6228D
:0D076E00D291C291D292D291C292C2912238
:0B077B00D291C291C292D291D2922280
:10070000E4FEEF30E703D38001C39292D291C2910D
:0C071000EF25E0FF0EBE08EAD291C29176
:01071C0022BA
:10075400E4FFFED291A2929200EF25E0FFA200E412
:09076400334207C2910EBE08EAFF
:01076D002269
:02032800AD071F
:10032A0012076E7FD0120700AF0512070012076E80
:10033A007FD11207001207547E0012077BAB07EE2B
:10034A00C4F854F0C868FEEFC4540F48FF7C007D1F
:09035A000A120237EB540F2FFFC9
:010363002277
:10029E00E4FF1203287533008F347F011203287593
:1002AE003F008F407F02120328753D008F3E7F0373
:1002BE001203287541008F427F0412032875350002
:1002CE008F367F05120328752D008F2E7F061203A1
:0702DE0028753B008F3C2254
:0406AB00AB05AA07EA
:1006AF00EBFF7E007C007D0A120249EB75F00A8495
:1006BF00C454F04DFB12076E7FD0120700AF021229
:0A06CF000700AF0312070002077BCB
:10067A008D09A903AD077F021206ABAD097F0112EE
:10068A0006ABAD01E4FF1206ABAD0B7F041206AB5D
:10069A00AD0C7F051206ABE50D2430FD7F06020680
:0106AA00ABA4
:10050100AB07AA067C007D0A1202498E538F54AEB6
:1005110002AF037C007D0A1202498C2B8D2CC2A0F4
:10052100D2A17447255412073AD2A0C2A17447251B
:090531002C12073AD2A0D2A1223B
:10053A00AB07AA067C007D0A1202498E598F5AAE71
:10054A0002AF037C007D0A1202498C2F8D30C2A2B1
:10055A007447255A12073AD2A2C2A3744725301209
:07056A00073AD2A3D2A2223E
:10057100AB07AA067C007D0A1202498E438F44AE66
:1005810002AF037C007D0A1202498C218D22C2A494
:100591007447254412073AD2A4C2A57447252212F2
:0505A100073AD2A5227B
:1005A600AB07AA067C007D0A1202498E458F46AE2D
:1005B60002AF037C007D0A1202498C258D26C2A655
:1005C6007447254612073AD2A6C2A77447252612B3
:0505D600073AD2A72244
:1005DB00AB07AA067C007D0A1202498E398F3AAE10
:1005EB0002AF037C007D0A1202498C558D56C2B0B6
:1005FB007447253A12073AD2B0C2B1744725561246
:05060B00073AD2B12204
:10061000AB07AA067C007D0A1202498E518F52AEAA
:1006200002AF037C007D0A1202498C298D2AC2B2D6
:100630007447255212073AD2B2C2B37447252A1220
:05064000073AD2B322CD
:10000300E534643C4533700CF533F5340540E54085
:100013007002053FE540643C453F700CF53FF540F9
:10002300053EE53E7002053DE53E6418453D70041E
:10003300F53DF53EE536641F4535700CF535F5366F
:10004300052EE52E7002052DE52E640D452D700C51
:10005300F52DF52E053CE53C7002053BE53C64645B
:10006300453B7004F53BF53CE534B4FF13E533B48D
:10007300FF0E75330075343BE54015407002153FA4
:10008300E540B4FF13E53FB4FF0E753F0075403BF9
:10009300E53E153E7002153DE53EB4FF0BE53DB46C
:1000A300FF06753D00753E17E536B4FF13E535B41D
:1000B300FF0E75350075361EE52E152E7002152DB3
:1000C300E52EB4FF13E52DB4FF0E752D00752E0C30
:1000D300E53C153C7002153BE53CB4FF0BE53BB436
:0900E300FF06753B00753C632229
:1002E50020933C0538E538700205376408453770BA
:1002F5002EF537F538AD3E7F021206ABAD407F01D6
:100305001206ABAD34E4FF1206ABAD367F04120620
:10031500ABAD2E7F051206ABAD3C7F061206AB30AA
:0303250093FD2223
:1003640020940F053EE53E7002053D7F107E271266
:10037400074220950FE53E153E7002153D7F107E25
:1003840027120742120003900000AF3EAE3D120553
:0A03940001A3E582640A458370F0BE
:01039E00223C
:10039F0020940F0540E5407002053F7F107E271225
:1003AF00074220950FE54015407002153F7F107EE4
:1003BF0027120742120003900000AF40AE3F120514
:0A03CF003AA3E582640A458370F04A
:0103D9002201
:1003DA0020940F0534E534700205337F107E27120E
:1003EA00074220950FE5341534700215337F107ECD
:1003FA0027120742120003900000AF34AE331205F1
:0A040A0071A3E582640A458370F0D7
:0104140022C5
:1004150020940F0536E536700205357F107E2712CC
:10042500074220950FE5361536700215357F107E8B
:1004350027120742120003900000AF36AE351205B1
:0A044500A6A3E582640A458370F067
:01044F00228A
:1004500020940F052EE52E7002052D7F107E2712A9
:10046000074220950FE52E152E7002152D7F107E68
:1004700027120742120003900000AF2EAE2D120586
:0A048000DBA3E582640A458370F0F7
:01048A00224F
:10048B0020940F053CE53C7002053B7F107E271244
:10049B00074220950FE53C153C7002153B7F107E03
:1004AB0027120742120003900000AF3CAE3B12062E
:0A04BB0010A3E582640A458370F087
:0104C5002214
:10064500AB07AA067C007D0A1202498E318F32AEB5
:1006550002AF037C007D0A1202498C238D24C2B4AB
:100665007447253212073AD2B4C2B574472524120D
:05067500073AD2B52296
:1006D900E528640145277015209012055CE55C70DA
:1006E90002055B6464455B7004F55BF55CA290E40C
:0706F90033752700F52822EC
:1004C60020940F055CE55C7002055B7F107E2712A9
:1004D600074220950FE55C155C7002155B7F107E68
:1004E600271207421206D9900000AF5CAE5B1206D7
:0A04F60045A3E582640A458370F017
:0105000022D8
:1000EC00D2B5D2B4D2B3D2B2D2B1D2B0D2A7D2A6F8
:1000FC00D2A1D2A0D2A3D2A2D2A5D2A4AF5CAE5B25
:10010C001206451202E51206D9E5384537702F1252
:10011C00029EAF3EAE3D120501AF40AE3F12053A16
:10012C00AF34AE33120571AF36AE351205A6AF2E15
:10013C00AE2D1205DBAF3CAE3B12061080BEE5388F
:10014C0064014537700512036480B1E538640245DB
:10015C0037700512039F80A4E5386403453770059A
:10016C001203DA8097E538640445377005120415DC
:10017C00808AE53864054537700612045002010880
:10018C00E53864064537700612048B020108E53821
:0F019C006407453760030201081204C602010818
:1001B7000200ECE493A3F8E493A34003F68001F272
:1001C70008DFF48029E493A3F85407240CC8C33349
:1001D700C4540F4420C8834004F456800146F6DF18
:1001E700E4800B010204081020408090071DE47E84
:1001F700019360BCA3FF543F30E509541FFEE4930D
:10020700A360010ECF54C025E060A840B8E493A3D3
:10021700FAE493A3F8E493A3C8C582C8CAC583CAFE
:10022700F0A3C8C582C8CAC583CADFE9DEE780BEB6
:0107390000BF
:10023700EF8DF0A4A8F0CF8CF0A428CE8DF0A42EDB
:02024700FE2295
:10024900BC000BBE0029EF8DF084FFADF022E4CC99
:10025900F875F008EF2FFFEE33FEEC33FCEE9DEC62
:10026900984005FCEE9DFE0FD5F0E9E4CEFD22EDA8
:10027900F8F5F0EE8420D21CFEADF075F008EF2FF2
:10028900FFED33FD4007985006D5F0F222C398FDE3
:050299000FD5F0EA2280
:00000001FF
